:020000040000FA
:100000002500D80C02000F0961000400C10C81001A
:100010000307050A6100560922097D09050A6600E1
:10002000040C0600060C2400A4028406190A6000D1
:10003000140A64006F00700000086F00700067040D
:1000400069004D0A46062C0A2F024307370A080C9E
:10005000900003071D0A370AB0024306F000670646
:10006000370A0F024306D002370A710900086706F3
:100070004D0A6705AF02820C900069037000080CFE
:100080008F0003074D0A6F00FF0C89014306510AD8
:10009000A50C89014306530A690087060008270456
:1000A00000082704540A270577091D0A6707630A11
:1000B000010CAB000307AC000306630A6704010CE4
:1000C0002C00F40C2B0087070008010CAD0003077F
:1000D000AE00030600088704C30C2C00500C2B0054
:1000E0000008010C2C00F40C2B0067050008C30C61
:1000F0002E00500C2D0087050008270786042706D0
:1001000086050008FF0FFF0FFF0FFF0FFF0FFF0F08
:10011000FF0FFF0FFF0FFF0FFF0FFF0FFF0FFF0F6F
:10012000FF0FFF0FFF0FFF0FFF0FFF0FFF0FFF0F5F
:10013000FF0FFF0FFF0FFF0FFF0FFF0FFF0FFF0F4F
:10014000FF0FFF0FFF0FFF0FFF0FFF0FFF0FFF0F3F
:021FFE00EE0FE4
:08040000FF0FFF0FFF0FFF0FBC
:0203FE00880C69
:00000001FF
